:100000000C942A000C944D000C944D000C944D005F
:100010000C944D000C944D000C944D000C944D002C
:100020000C944D000C944D000C944D000C944D001C
:100030000C944D000C944D000C944D000C944D000C
:100040000C944D000C944D000C944D000C944D00FC
:100050000C944D0011241FBECFE5D8E0DEBFCDBF0C
:0C0060000E9436000C943400F894FFCF8E
:10006C00A29AAA9AAA9A2FEF89E698E12150804089
:10007C009040E1F700C00000AA982FEF89E698E1C4
:0E008C00215080409040E1F700C00000EBCF13
:04009A000C940000C2
:00000001FF
