:100000000C942E000C943F010C943F010C943F0182
:100010000C943F010C943F010C943F010C943F0160
:100020000C943F010C943F010C943F010C943F0150
:100030000C943F010C943F010C943F010C943F0140
:100040000C943F010C943F010C943F010C943F0130
:100050000C943F010060006D0002820011241FBE5D
:10006000CFE5D8E0DEBFCDBFE4E5F0E040E017C06B
:10007000B591A59135912591059107FD0CC09591FC
:100080008591EF01F92FE82F05900D92A217B30784
:10009000D9F7FE0104C01D92A217B307E1F7EB35B3
:1000A000F40731F70E94D3000C945600F894FFCF68
:1000B0008AB3806F8ABB87B38E6087BB8FE39CE96E
:1000C0000197F1F700C00000C2980E943B0182E056
:1000D0000E94980088E20E9498008CE00E9498009C
:1000E00080E80E9498008FE39CE90197F1F700C037
:0400F000000008956F
:1000F400CF93C82FC19A8BB39C2F907F8F70892B7D
:100104008BBB0E9432012BB330E1C39FC001112489
:10011400922F9F70892B8BBB0E9432018FE39FE14A
:0C0124000197F1F700C00000CF91089592
:10013000CF93C82FC1988BB39C2F907F8F70892B42
:100140008BBB0E9432012BB330E1C39FC00111244D
:10015000922F9F70892B8BBB0E9432018FE39FE10E
:0C0160000197F1F700C00000CF91089556
:10016C00CF93DF93CDB7DEB72B970FB6F894DEBFE6
:10017C000FBECDBF4AE0BE016F5F7F4F0E942701CB
:10018C00CE0101960E9418012B960FB6F894DEBF93
:0A019C000FBECDBFDF91CF91089593
:1001A6000E94580080E690E00E941801C6EED7E053
:1001B6002FEF83ED90E3215080409040E1F700C09F
:1001C60000000E943B018E010F5F1F4FCE010E946F
:0601D600B600E801EDCFC8
:1001DC00BB27FB015527AA27880F991FAA1FA41715
:1001EC0010F0A41B83955051B9F7A05DAA3308F009
:1001FC00A95DA193009779F7B111B1931192CB013D
:04020C000C94080145
:10021000DC01FC01672F71917723E1F7329704C06D
:100220007C916D9370836291AE17BF07C8F30895F8
:10023000CF93DF93EC018881882331F021960E94CF
:0E0240007A0089918111FBCFDF91CF91089553
:10024E00BB274A3031F4992322F4BDE29095819573
:06025E009F4F0C94EF001D
:10026400C39A8FE19EE40197F1F700C00000C398A0
:020274000895EB
:0802760081E00E949800089548
:04027E000C940000DC
:0D02820048656C6C6F20576F726C64210032
:00000001FF
