:100000000C942A000C9410010C9410010C94100113
:100010000C9410010C9410010C9410010C9410011C
:100020000C9410010C9410010C9410010C9410010C
:100030000C9410010C9410010C9410010C941001FC
:100040000C9410010C9410010C9410010C941001EC
:100050000C94100111241FBECFE5D8E0DEBFCDBF48
:10006000E4E5F0E040E017C0B591A5913591259108
:10007000059107FD0CC095918591EF01F92FE82FAF
:1000800005900D92A217B307D9F7FE0104C01D9287
:10009000A217B307E1F7E435F40731F70E94AC008B
:0800A0000C945200F894FFCF0C
:1000A8008FEF8ABB87B3876087BB8FE39CE9019793
:1000B800F1F700C00000C1980E940C0182E00E9484
:1000C800ED0088E30E94ED008CE00E94ED0080E8DE
:1000D8000E94ED008FE39CE90197F1F700C0000052
:0200E800089579
:1000EA00CF93DF93CDB7DEB72B970FB6F894DEBF69
:1000FA000FBECDBF4AE0BE016F5F7F4F0E94F8007E
:10010A00CE0101960E94D3002B960FB6F894DEBF5B
:0A011A000FBECDBFDF91CF91089515
:10012400BB27FB015527AA27880F991FAA1FA417CD
:1001340010F0A41B83955051B9F7A05DAA3308F0C1
:10014400A95DA193009779F7B111B1931192CB01F5
:040154000C94C30044
:100158000E945400C6EED7E02FEF83ED90E32150C4
:1001680080409040E1F700C000000E940C018E0121
:0E0178000F5F1F4FCE010E947500E801EDCF12
:10018600DC01FC01672F71917723E1F7329704C0F8
:100196007C916D9370836291AE17BF07C8F3089583
:1001A600CF93DF93EC018881882331F021960E945A
:0E01B600E20089918111FBCFDF91CF91089576
:1001C4008BBBC29A0E9403018FE39FE10197F1F771
:0601D40000C000000895C8
:1001DA008BBBC2980E9403018FE39FE10197F1F75D
:0601EA0000C000000895B2
:1001F000BB274A3031F4992322F4BDE290958195D2
:060200009F4F0C949300D7
:10020600C09A8FE19EE40197F1F700C00000C09804
:02021600089549
:0802180081E00E94ED00089551
:040220000C9400003A
:00000001FF
