:100000000C942A000C9497000C9497000C94970081
:100010000C9497000C9497000C9497000C94970004
:100020000C9497000C9497000C9497000C949700F4
:100030000C9497000C9497000C9497000C949700E4
:100040000C9497000C9497000C9497000C949700D4
:100050000C94970011241FBECFE5D8E0DEBFCDBFC2
:0C0060000E9463000C943400F894FFCF61
:10006C006623A9F0833089F0873011F0823021F5B6
:10007C0045B321E030E0B90102C0660F771F8A95C5
:10008C00E2F7CB01842B85BB0895939A08958330B6
:10009C0091F0873011F0823079F445B321E030E0F3
:1000AC00B90102C0660F771F8A95E2F7CB018095E4
:0A00BC00842385BB089593980895EE
:1000C6000E948D000E94920080E00E947D00682FB1
:1000D60082E00E94360086E00E947D00682F87E05D
:1000E6000E94360082E00E947D00682F83E00E9415
:0400F6003600EACF17
:1000FA00811103C086B38170089520B330E0A9014D
:10010A0002C0559547958A95E2F7CA01817008950C
:0A011A0084B3846884BB8B9A0895B7
:0A012400B89881B38B7B81BB08956E
:04012E000C9400002D
:00000001FF
