:100000000C942E000C94B2000C94B2000C94B2002C
:100010000C94B2000C94B2000C94B2000C94B20098
:100020000C94B2000C94B2000C94B2000C94B20088
:100030000C94B2000C94B2000C94B2000C94B20078
:100040000C94B2000C94B2000C94B2000C94B20068
:100050000C94B2000060006D0001680011241FBE06
:10006000CFE5D8E0DEBFCDBFE4E5F0E040E017C06B
:10007000B591A59135912591059107FD0CC09591FC
:100080008591EF01F92FE82F05900D92A217B30784
:10009000D9F7FE0104C01D92A217B307E1F7EB35B3
:1000A000F40731F70E94A7000C945600F894FFCF94
:1000B0008FEF8ABB87B3876087BB8FE39CE901978B
:1000C000F1F700C00000C1980E94AE0082E00E94DB
:1000D000930088E30E9493008CE00E94930080E8E4
:1000E0000E9493008FE39CE90197F1F700C00000A4
:0200F000089571
:1000F200CF93DF93EC018881882331F021960E940F
:0E010200880089918111FBCFDF91CF91089584
:100110008BBBC29A0E949E008FE39FE10197F1F78B
:0601200000C0000008957C
:100126008BBBC2980E949E008FE39FE10197F1F777
:0601360000C00000089566
:10013C00C09A8FE19EE40197F1F700C00000C098CF
:02014C00089514
:0E014E000E94580080E690E00E947900FFCFEA
:08015C0081E00E949300089568
:040164000C940000F7
:0D01680048656C6C6F20576F726C6421004D
:00000001FF
